:100000000C942A000C945D000C945D000C945D002F
:100010000C945D000C945D000C945D000C945D00EC
:100020000C945D000C945D000C945D000C945D00DC
:100030000C945D000C945D000C945D000C945D00CC
:100040000C945D000C945D000C945D000C945D00BC
:100050000C945D0011241FBECFE5D4E0DEBFCDBF00
:0C0060000E9436000C944700F894FFCF7B
:10006C000E945200C49881E40E94590082E40E94CC
:10007C005900C49A83EC99E00197F1F700C0000095
:02008C00F1CFB2
:10008E00EC010E9462000E946100CE010E9463009A
:06009E00CE010E945F008C
:0E00A40087B3806B87BBBE9881E58DB9089548
:0800B2008FB9779BFECF089582
:0400BA000C940000A2
:0400BE000E94340068
:0200C20008959F
:0200C40008959D
:0200C60008959B
:00000001FF
