:100000000C942A000C9456000C9456000C94560044
:100010000C9456000C9456000C9456000C94560008
:100020000C9456000C9456000C9456000C945600F8
:100030000C9456000C9456000C9456000C945600E8
:100040000C9456000C9456000C9456000C945600D8
:100050000C94560011241FBECFE5D4E0DEBFCDBF07
:0C0060000E9441000C943600F894FFCF81
:10006C00EC010E945B000E945A00CE010E945C00D1
:06007C00CE010E945800B5
:100082008FEF8ABB0E944B00C3E40E9452008BBBDD
:04009200CFB9FBCF18
:0E00960087B38F7487BBBE9A80EC8DB9089536
:0800A400779BFECF8FB1089598
:0400AC000C940000B0
:0400B0000E94340076
:0200B4000895AD
:0200B6000895AB
:0200B8000895A9
:00000001FF
